{"abi":[{"type":"constructor","inputs":[{"name":"_keke","type":"address","internalType":"contract KekeToken"},{"name":"_syrup","type":"address","internalType":"contract SyrupBar"},{"name":"_devaddr","type":"address","internalType":"address"},{"name":"_kekePerBlock","type":"uint256","internalType":"uint256"},{"name":"_startBlock","type":"uint256","internalType":"uint256"}],"stateMutability":"nonpayable"},{"type":"function","name":"BONUS_MULTIPLIER","inputs":[],"outputs":[{"name":"","type":"uint256","internalType":"uint256"}],"stateMutability":"view"},{"type":"function","name":"addPool","inputs":[{"name":"_allocPoint","type":"uint256","internalType":"uint256"},{"name":"_lpToken","type":"address","internalType":"contract IERC20"},{"name":"_withUpdate","type":"bool","internalType":"bool"}],"outputs":[],"stateMutability":"nonpayable"},{"type":"function","name":"deposit","inputs":[{"name":"_pid","type":"uint256","internalType":"uint256"},{"name":"_amount","type":"uint256","internalType":"uint256"}],"outputs":[],"stateMutability":"nonpayable"},{"type":"function","name":"dev","inputs":[{"name":"_devaddr","type":"address","internalType":"address"}],"outputs":[],"stateMutability":"nonpayable"},{"type":"function","name":"devaddr","inputs":[],"outputs":[{"name":"","type":"address","internalType":"address"}],"stateMutability":"view"},{"type":"function","name":"enterStaking","inputs":[{"name":"_amount","type":"uint256","internalType":"uint256"}],"outputs":[],"stateMutability":"nonpayable"},{"type":"function","name":"getMultiplier","inputs":[{"name":"_from","type":"uint256","internalType":"uint256"},{"name":"_to","type":"uint256","internalType":"uint256"}],"outputs":[{"name":"","type":"uint256","internalType":"uint256"}],"stateMutability":"view"},{"type":"function","name":"getPoolKEKEReward","inputs":[{"name":"_pid","type":"uint256","internalType":"uint256"},{"name":"_user","type":"address","internalType":"address"}],"outputs":[{"name":"","type":"uint256","internalType":"uint256"}],"stateMutability":"view"},{"type":"function","name":"keke","inputs":[],"outputs":[{"name":"","type":"address","internalType":"contract KekeToken"}],"stateMutability":"view"},{"type":"function","name":"kekePerBlock","inputs":[],"outputs":[{"name":"","type":"uint256","internalType":"uint256"}],"stateMutability":"view"},{"type":"function","name":"leaveStaking","inputs":[{"name":"_amount","type":"uint256","internalType":"uint256"}],"outputs":[],"stateMutability":"nonpayable"},{"type":"function","name":"massUpdatePools","inputs":[],"outputs":[],"stateMutability":"nonpayable"},{"type":"function","name":"owner","inputs":[],"outputs":[{"name":"","type":"address","internalType":"address"}],"stateMutability":"view"},{"type":"function","name":"poolInfo","inputs":[{"name":"","type":"uint256","internalType":"uint256"}],"outputs":[{"name":"lpToken","type":"address","internalType":"contract IERC20"},{"name":"allocPoint","type":"uint256","internalType":"uint256"},{"name":"lastRewardBlock","type":"uint256","internalType":"uint256"},{"name":"accKekePerShare","type":"uint256","internalType":"uint256"}],"stateMutability":"view"},{"type":"function","name":"poolLength","inputs":[],"outputs":[{"name":"","type":"uint256","internalType":"uint256"}],"stateMutability":"view"},{"type":"function","name":"renounceOwnership","inputs":[],"outputs":[],"stateMutability":"nonpayable"},{"type":"function","name":"setPool","inputs":[{"name":"_pid","type":"uint256","internalType":"uint256"},{"name":"_allocPoint","type":"uint256","internalType":"uint256"},{"name":"_withUpdate","type":"bool","internalType":"bool"}],"outputs":[],"stateMutability":"nonpayable"},{"type":"function","name":"startBlock","inputs":[],"outputs":[{"name":"","type":"uint256","internalType":"uint256"}],"stateMutability":"view"},{"type":"function","name":"syrup","inputs":[],"outputs":[{"name":"","type":"address","internalType":"contract SyrupBar"}],"stateMutability":"view"},{"type":"function","name":"totalAllocPoint","inputs":[],"outputs":[{"name":"","type":"uint256","internalType":"uint256"}],"stateMutability":"view"},{"type":"function","name":"transferOwnership","inputs":[{"name":"newOwner","type":"address","internalType":"address"}],"outputs":[],"stateMutability":"nonpayable"},{"type":"function","name":"updateMultiplier","inputs":[{"name":"multiplierNumber","type":"uint256","internalType":"uint256"}],"outputs":[],"stateMutability":"nonpayable"},{"type":"function","name":"updatePool","inputs":[{"name":"_pid","type":"uint256","internalType":"uint256"}],"outputs":[],"stateMutability":"nonpayable"},{"type":"function","name":"userInfo","inputs":[{"name":"","type":"uint256","internalType":"uint256"},{"name":"","type":"address","internalType":"address"}],"outputs":[{"name":"amount","type":"uint256","internalType":"uint256"},{"name":"rewardDebt","type":"uint256","internalType":"uint256"}],"stateMutability":"view"},{"type":"function","name":"withdraw","inputs":[{"name":"_pid","type":"uint256","internalType":"uint256"},{"name":"_amount","type":"uint256","internalType":"uint256"}],"outputs":[],"stateMutability":"nonpayable"},{"type":"event","name":"Deposit","inputs":[{"name":"user","type":"address","indexed":true,"internalType":"address"},{"name":"pid","type":"uint256","indexed":true,"internalType":"uint256"},{"name":"amount","type":"uint256","indexed":false,"internalType":"uint256"}],"anonymous":false},{"type":"event","name":"EmergencyWithdraw","inputs":[{"name":"user","type":"address","indexed":true,"internalType":"address"},{"name":"pid","type":"uint256","indexed":true,"internalType":"uint256"},{"name":"amount","type":"uint256","indexed":false,"internalType":"uint256"}],"anonymous":false},{"type":"event","name":"OwnershipTransferred","inputs":[{"name":"previousOwner","type":"address","indexed":true,"internalType":"address"},{"name":"newOwner","type":"address","indexed":true,"internalType":"address"}],"anonymous":false},{"type":"event","name":"Withdraw","inputs":[{"name":"user","type":"address","indexed":true,"internalType":"address"},{"name":"pid","type":"uint256","indexed":true,"internalType":"uint256"},{"name":"amount","type":"uint256","indexed":false,"internalType":"uint256"}],"anonymous":false},{"type":"error","name":"OwnableInvalidOwner","inputs":[{"name":"owner","type":"address","internalType":"address"}]},{"type":"error","name":"OwnableUnauthorizedAccount","inputs":[{"name":"account","type":"address","internalType":"address"}]},{"type":"error","name":"SafeERC20FailedOperation","inputs":[{"name":"token","type":"address","internalType":"address"}]}],"bytecode":{"object":"0x60806040523461020157604051601f6115ed38819003918201601f19168301916001600160401b038311848410176101da5780849260a0946040528339810103126102015780516001600160a01b03811691908290036102015760208101516001600160a01b03811691908290036102015760408101516001600160a01b0381169081900361020157608060608301519201519233156101ee575f8054336001600160a01b0319821681178355916001600160a01b03909116907f8be0079c531659141344cd1fd0a4f28419497f9722a3daafe3b4186f6b6457e09080a3600180555f600855600280546001600160a01b031990811687179091556003805482169290921790915560048054909116919091179055600555600981905560405191608083016001600160401b038111848210176101da57604052825260208201906103e882526040830190815260608301905f825260065492680100000000000000008410156101da5760018401806006558410156101c65760039360065f5260205f209060021b019460018060a01b0390511660018060a01b0319865416178555516001850155516002840155519101556103e86008556040516113e790816102068239f35b634e487b7160e01b5f52603260045260245ffd5b634e487b7160e01b5f52604160045260245ffd5b631e4fbdf760e01b5f525f60045260245ffd5b5f80fdfe6080806040526004361015610012575f80fd5b5f905f3560e01c908163081e3eda14610dbc575080631058d28114610c4f5780631526fe2714610bf057806317caf6f114610bd257806341441d3b14610a61578063441a3e701461091457806346ca6bea1461088e57806348cd4cb11461087057806351eb05a6146108535780635ffe614614610830578063630b5ba114610817578063715018a6146107bd5780637abceffd1461067f57806386a952c4146106565780638aa28550146106385780638bc4f16b1461048c5780638d88a90e146104105780638da5cb5b146103e95780638dbb1e3a146103bc57806393f1a40b1461036e578063a36cc2b714610345578063b531852314610327578063d49e77cd146102fe578063e2bbb158146101b95763f2fde38b14610131575f80fd5b346101b65760203660031901126101b65761014a610e73565b6101526112c3565b6001600160a01b031680156101a25781546001600160a01b03198116821783556001600160a01b03167f8be0079c531659141344cd1fd0a4f28419497f9722a3daafe3b4186f6b6457e08380a380f35b631e4fbdf760e01b82526004829052602482fd5b80fd5b50346101b6576101c836610e38565b81156102b9576101d782610e1c565b5082845260076020526040842060018060a01b0333165f52602052670de0b6b3a764000061024a60405f2061020b8661114e565b8054908361021f6003870193845490610eca565b04946102316001830196875490610f0f565b806102a9575b50868061027c575b505054905490610eca565b0490556040519081527f90890809c654f11d6e72a28fa60149770a0d11ec6c92319d6ceb2bb0a4ea1a1560203392a380f35b90546102959190309033906001600160a01b031661127f565b6102a0868254610f52565b81555f8661023f565b6102b390336111e0565b5f610237565b60405162461bcd60e51b815260206004820152601760248201527f6465706f736974204b454b45206279207374616b696e670000000000000000006044820152606490fd5b50346101b657806003193601126101b6576004546040516001600160a01b039091168152602090f35b50346101b657806003193601126101b6576020600554604051908152f35b50346101b657806003193601126101b6576002546040516001600160a01b039091168152602090f35b50346101b65760403660031901126101b657604061038a610e5d565b9160043581526007602052209060018060a01b03165f526020526040805f206001815491015482519182526020820152f35b50346101b65760206103e16103d86103d336610e38565b610f0f565b60015490610eca565b604051908152f35b50346101b657806003193601126101b657546040516001600160a01b039091168152602090f35b50346101b65760203660031901126101b65761042a610e73565b600454906001600160a01b038216330361045b576001600160a01b03166001600160a01b0319919091161760045580f35b60405162461bcd60e51b81526020600482015260096024820152686465763a207775743f60b81b6044820152606490fd5b50346101b65760403660031901126101b6576004356104a9610e5d565b6104b282610e1c565b509183526007602052604083209060018060a01b03165f52602052602460405f2092600383015492602060018060a01b03825416604051948580926370a0823160e01b82523060048301525afa92831561062d5782936105f5575b506002810154804311806105ec575b610547575b60206103e1876001670de0b6b3a764000061053d8a8454610eca565b0491015490610f0f565b61058391600161057161056861056061057a9543610f0f565b835490610eca565b60055490610eca565b91015490610eca565b60085490610ef1565b90670de0b6b3a7640000820291808304670de0b6b3a764000014901517156105d85750670de0b6b3a764000061053d6105ce6103e1956105c860209896600196610ef1565b90610f52565b9450839550610521565b634e487b7160e01b81526011600452602490fd5b5083151561051c565b9092506020813d602011610625575b8161061160209383610f1c565b810103126106215751915f61050d565b5f80fd5b3d9150610604565b6040513d84823e3d90fd5b50346101b657806003193601126101b6576020600154604051908152f35b50346101b657806003193601126101b6576003546040516001600160a01b039091168152602090f35b50346101b65760603660031901126101b6576024356001600160a01b0381169190600435908390036107b9576106b3610e4e565b6106bb6112c3565b6107ac575b6009548043115f146107a75750435b6106db82600854610f52565b600855604051936080850185811067ffffffffffffffff8211176107935760405284526020840191825260408401908152606084019083825260065468010000000000000000811015610793578060016107389201600655610e1c565b93909361077f57600393949560018060a01b039051166bffffffffffffffffffffffff60a01b8654161785555160018501555160028401555191015561077c6112e9565b80f35b634e487b7160e01b85526004859052602485fd5b634e487b7160e01b85526041600452602485fd5b6106cf565b6107b46111be565b6106c0565b5080fd5b50346101b657806003193601126101b6576107d66112c3565b80546001600160a01b03198116825581906001600160a01b03167f8be0079c531659141344cd1fd0a4f28419497f9722a3daafe3b4186f6b6457e08280a380f35b50346101b657806003193601126101b65761077c6111be565b50346101b65760203660031901126101b65761084a6112c3565b60043560015580f35b50346101b65760203660031901126101b65761077c60043561114e565b50346101b657806003193601126101b6576020600954604051908152f35b50346101b65760603660031901126101b6576004356024356108ae610e4e565b6108b66112c3565b610907575b8060016108d4816108cb86610e1c565b50015494610e1c565b5001558082036108e2578280f35b6108f16108f692600854610f0f565b610f52565b6008556109016112e9565b5f808280f35b61090f6111be565b6108bb565b50346101b65761092336610e38565b8115610a1c5761093282610e1c565b5082845260076020526040842060018060a01b0333165f52602052670de0b6b3a76400006109b160405f2061096a8582541015610e89565b6109738661114e565b805490836109876003870193845490610eca565b04946109996001830196875490610f0f565b80610a0c575b5086806109e357505054905490610eca565b0490556040519081527ff279e6a1f5e320cca91135676d9cb6e44ca8a08c0b88342bcdb1144f6511b56860203392a380f35b610a05916109f2828554610f0f565b84555433906001600160a01b031661123e565b5f8661023f565b610a1690336111e0565b5f61099f565b60405162461bcd60e51b815260206004820152601a60248201527f7769746864726177204b454b4520627920756e7374616b696e670000000000006044820152606490fd5b50346101b65760203660031901126101b65780600435610a7f610dd6565b5082805260076020526040832060018060a01b0333165f526020526001670de0b6b3a7640000610ad160405f2093610ab5610f5f565b845480610b9e575b5085610b76575b6003855491015490610eca565b049101556003546001600160a01b0316803b15610b72576040516340c10f1960e01b8152336004820152602481018390529083908290604490829084905af1908115610b67578391610b4f575b50506040519081527f90890809c654f11d6e72a28fa60149770a0d11ec6c92319d6ceb2bb0a4ea1a1560203392a380f35b81610b5991610f1c565b610b6457815f610b1e565b50fd5b6040513d85823e3d90fd5b5050fd5b610b8c86858060a01b038354163090339061127f565b610b97868654610f52565b8555610ac4565b83610bb1610bbc92600385015490610eca565b048587015490610f0f565b8015610abd57610bcc90336111e0565b5f610abd565b50346101b657806003193601126101b6576020600854604051908152f35b50346101b65760203660031901126101b657600435906006548210156101b6576080610c1b83610e1c565b5060018060a01b03815416906001810154906003600282015491015491604051938452602084015260408301526060820152f35b50346106215760203660031901126106215760043590610c6d610dd6565b50335f9081527f6d5257204ebe7d88fd91ae87941cb2dd9d8062b64ae5a2bd2d28ec40b9fbf6df602052604090208054670de0b6b3a764000091610cfd91610cb790871115610e89565b610cbf610f5f565b80549083610cd36003870193845490610eca565b0494610ce56001830196875490610f0f565b80610dac575b508780610d9657505054905490610eca565b0490556003546001600160a01b0316803b1561062157604051632770a7eb60e21b815233600482015260248101849052905f908290604490829084905af18015610d8b57610d78575b5080916040519081527ff279e6a1f5e320cca91135676d9cb6e44ca8a08c0b88342bcdb1144f6511b56860203392a380f35b610d8491505f90610f1c565b5f5f610d46565b6040513d5f823e3d90fd5b610da5916109f2828554610f0f565b5f8761023f565b610db690336111e0565b5f610ceb565b34610621575f366003190112610621576020906006548152f35b60065415610e085760065f9081527ff652222313e28459528d920b65115c16c04f3efc82aaedc97be59f3f377c0d3f91565b634e487b7160e01b5f52603260045260245ffd5b600654811015610e085760065f5260205f209060021b01905f90565b6040906003190112610621576004359060243590565b60443590811515820361062157565b602435906001600160a01b038216820361062157565b600435906001600160a01b038216820361062157565b15610e9057565b60405162461bcd60e51b81526020600482015260126024820152711dda5d1a191c985dce881b9bdd0819dbdbd960721b6044820152606490fd5b81810292918115918404141715610edd57565b634e487b7160e01b5f52601160045260245ffd5b8115610efb570490565b634e487b7160e01b5f52601260045260245ffd5b91908203918211610edd57565b90601f8019910116810190811067ffffffffffffffff821117610f3e57604052565b634e487b7160e01b5f52604160045260245ffd5b91908201809211610edd57565b5f610f695f610e1c565b50600281019182544311156111495781546040516370a0823160e01b815230600482015290602090829060249082906001600160a01b03165afa908115610d8b575f91611117575b50801561110f57610fda61057a610fcf6105686103d8885443610f0f565b600186015490610eca565b6002546004549194916001600160a01b039081169116803b15610621576040516340c10f1960e01b81526001600160a01b03929092166004830152600a860460248301525f908290604490829084905af18015610d8b576110fa575b506002546003546001600160a01b039182169116813b156110f6576040516340c10f1960e01b81526001600160a01b03919091166004820152602481018690529084908290604490829084905af180156110eb579084916110d2575b505060030192835492670de0b6b3a7640000820291808304670de0b6b3a764000014901517156105d857506110cb92916105c891610ef1565b9055439055565b816110dc91610f1c565b6110e757825f611092565b8280fd5b6040513d86823e3d90fd5b8480fd5b6111079193505f90610f1c565b5f915f611036565b505050439055565b90506020813d602011611141575b8161113260209383610f1c565b8101031261062157515f610fb1565b3d9150611125565b505050565b61115790610e1c565b50600281019081545f904311156111495781546040516370a0823160e01b815230600482015290602090829060249082906001600160a01b03165afa908115610d8b575f916111175750801561110f57610fda61057a610fcf6105686103d8885443610f0f565b6006545f5b8181106111ce575050565b806111da60019261114e565b016111c3565b6003546001600160a01b031691823b1561062157604051632b5100eb60e11b81526001600160a01b039290921660048301526024820152905f908290604490829084905af18015610d8b576112325750565b5f61123c91610f1c565b565b60405163a9059cbb60e01b60208201526001600160a01b0392909216602483015260448083019390935291815261123c9161127a606483610f1c565b611359565b6040516323b872dd60e01b60208201526001600160a01b03928316602482015292909116604483015260648083019390935291815261123c9161127a608483610f1c565b5f546001600160a01b031633036112d657565b63118cdaa760e01b5f523360045260245ffd5b6006545f906001905b808210611336575050806113035750565b60039004611324816108f1600854600161131b610dd6565b50015490610f0f565b6008556001611331610dd6565b500155565b90916113516001918261134886610e1c565b50015490610f52565b9201906112f2565b905f602091828151910182855af115610d8b575f513d6113a857506001600160a01b0381163b155b6113885750565b635274afe760e01b5f9081526001600160a01b0391909116600452602490fd5b6001141561138156fea2646970667358221220f0e83e22ec34f792f0c387b24a95538d0198e857ab1da405e079d3261b189f2d64736f6c634300081e0033","linkReferences":{}},"methodIdentifiers":{"BONUS_MULTIPLIER()":"8aa28550","addPool(uint256,address,bool)":"7abceffd","deposit(uint256,uint256)":"e2bbb158","dev(address)":"8d88a90e","devaddr()":"d49e77cd","enterStaking(uint256)":"41441d3b","getMultiplier(uint256,uint256)":"8dbb1e3a","getPoolKEKEReward(uint256,address)":"8bc4f16b","keke()":"a36cc2b7","kekePerBlock()":"b5318523","leaveStaking(uint256)":"1058d281","massUpdatePools()":"630b5ba1","owner()":"8da5cb5b","poolInfo(uint256)":"1526fe27","poolLength()":"081e3eda","renounceOwnership()":"715018a6","setPool(uint256,uint256,bool)":"46ca6bea","startBlock()":"48cd4cb1","syrup()":"86a952c4","totalAllocPoint()":"17caf6f1","transferOwnership(address)":"f2fde38b","updateMultiplier(uint256)":"5ffe6146","updatePool(uint256)":"51eb05a6","userInfo(uint256,address)":"93f1a40b","withdraw(uint256,uint256)":"441a3e70"},"id":32}