{"abi":[{"type":"constructor","inputs":[{"name":"_stakedToken","type":"address","internalType":"contract IERC20"},{"name":"_rewardToken","type":"address","internalType":"contract IERC20"},{"name":"_rewardPerBlock","type":"uint256","internalType":"uint256"},{"name":"_startBlock","type":"uint256","internalType":"uint256"},{"name":"_bonusEndBlock","type":"uint256","internalType":"uint256"},{"name":"_poolLimitPerUser","type":"uint256","internalType":"uint256"}],"stateMutability":"nonpayable"},{"type":"function","name":"PRECISION_FACTOR","inputs":[],"outputs":[{"name":"","type":"uint256","internalType":"uint256"}],"stateMutability":"view"},{"type":"function","name":"accTokenPerShare","inputs":[],"outputs":[{"name":"","type":"uint256","internalType":"uint256"}],"stateMutability":"view"},{"type":"function","name":"bonusEndBlock","inputs":[],"outputs":[{"name":"","type":"uint256","internalType":"uint256"}],"stateMutability":"view"},{"type":"function","name":"deposit","inputs":[{"name":"_amount","type":"uint256","internalType":"uint256"}],"outputs":[],"stateMutability":"nonpayable"},{"type":"function","name":"getMultiplier","inputs":[{"name":"_from","type":"uint256","internalType":"uint256"},{"name":"_to","type":"uint256","internalType":"uint256"}],"outputs":[{"name":"","type":"uint256","internalType":"uint256"}],"stateMutability":"view"},{"type":"function","name":"hasUserLimit","inputs":[],"outputs":[{"name":"","type":"bool","internalType":"bool"}],"stateMutability":"view"},{"type":"function","name":"lastRewardBlock","inputs":[],"outputs":[{"name":"","type":"uint256","internalType":"uint256"}],"stateMutability":"view"},{"type":"function","name":"owner","inputs":[],"outputs":[{"name":"","type":"address","internalType":"address"}],"stateMutability":"view"},{"type":"function","name":"pendingReward","inputs":[{"name":"_user","type":"address","internalType":"address"}],"outputs":[{"name":"","type":"uint256","internalType":"uint256"}],"stateMutability":"view"},{"type":"function","name":"poolLimitPerUser","inputs":[],"outputs":[{"name":"","type":"uint256","internalType":"uint256"}],"stateMutability":"view"},{"type":"function","name":"recoverWrongTokens","inputs":[{"name":"_tokenAddress","type":"address","internalType":"address"},{"name":"_tokenAmount","type":"uint256","internalType":"uint256"}],"outputs":[],"stateMutability":"nonpayable"},{"type":"function","name":"renounceOwnership","inputs":[],"outputs":[],"stateMutability":"nonpayable"},{"type":"function","name":"rewardPerBlock","inputs":[],"outputs":[{"name":"","type":"uint256","internalType":"uint256"}],"stateMutability":"view"},{"type":"function","name":"rewardToken","inputs":[],"outputs":[{"name":"","type":"address","internalType":"contract IERC20"}],"stateMutability":"view"},{"type":"function","name":"stakedToken","inputs":[],"outputs":[{"name":"","type":"address","internalType":"contract IERC20"}],"stateMutability":"view"},{"type":"function","name":"startBlock","inputs":[],"outputs":[{"name":"","type":"uint256","internalType":"uint256"}],"stateMutability":"view"},{"type":"function","name":"stopReward","inputs":[],"outputs":[],"stateMutability":"nonpayable"},{"type":"function","name":"transferOwnership","inputs":[{"name":"newOwner","type":"address","internalType":"address"}],"outputs":[],"stateMutability":"nonpayable"},{"type":"function","name":"updatePoolLimitPerUser","inputs":[{"name":"_hasUserLimit","type":"bool","internalType":"bool"},{"name":"_poolLimitPerUser","type":"uint256","internalType":"uint256"}],"outputs":[],"stateMutability":"nonpayable"},{"type":"function","name":"updateRewardPerBlock","inputs":[{"name":"_rewardPerBlock","type":"uint256","internalType":"uint256"}],"outputs":[],"stateMutability":"nonpayable"},{"type":"function","name":"updateStartAndEndBlocks","inputs":[{"name":"_startBlock","type":"uint256","internalType":"uint256"},{"name":"_bonusEndBlock","type":"uint256","internalType":"uint256"}],"outputs":[],"stateMutability":"nonpayable"},{"type":"function","name":"userInfo","inputs":[{"name":"","type":"address","internalType":"address"}],"outputs":[{"name":"amount","type":"uint256","internalType":"uint256"},{"name":"rewardDebt","type":"uint256","internalType":"uint256"}],"stateMutability":"view"},{"type":"function","name":"withdraw","inputs":[{"name":"_amount","type":"uint256","internalType":"uint256"}],"outputs":[],"stateMutability":"nonpayable"},{"type":"event","name":"AdminTokenRecovery","inputs":[{"name":"tokenRecovered","type":"address","indexed":false,"internalType":"address"},{"name":"amount","type":"uint256","indexed":false,"internalType":"uint256"}],"anonymous":false},{"type":"event","name":"Deposit","inputs":[{"name":"user","type":"address","indexed":true,"internalType":"address"},{"name":"amount","type":"uint256","indexed":false,"internalType":"uint256"}],"anonymous":false},{"type":"event","name":"NewPoolLimit","inputs":[{"name":"poolLimitPerUser","type":"uint256","indexed":false,"internalType":"uint256"}],"anonymous":false},{"type":"event","name":"NewRewardPerBlock","inputs":[{"name":"rewardPerBlock","type":"uint256","indexed":false,"internalType":"uint256"}],"anonymous":false},{"type":"event","name":"NewStartAndEndBlocks","inputs":[{"name":"startBlock","type":"uint256","indexed":false,"internalType":"uint256"},{"name":"endBlock","type":"uint256","indexed":false,"internalType":"uint256"}],"anonymous":false},{"type":"event","name":"OwnershipTransferred","inputs":[{"name":"previousOwner","type":"address","indexed":true,"internalType":"address"},{"name":"newOwner","type":"address","indexed":true,"internalType":"address"}],"anonymous":false},{"type":"event","name":"RewardsStop","inputs":[{"name":"blockNumber","type":"uint256","indexed":false,"internalType":"uint256"}],"anonymous":false},{"type":"event","name":"Withdraw","inputs":[{"name":"user","type":"address","indexed":true,"internalType":"address"},{"name":"amount","type":"uint256","indexed":false,"internalType":"uint256"}],"anonymous":false},{"type":"error","name":"OwnableInvalidOwner","inputs":[{"name":"owner","type":"address","internalType":"address"}]},{"type":"error","name":"OwnableUnauthorizedAccount","inputs":[{"name":"account","type":"address","internalType":"address"}]},{"type":"error","name":"ReentrancyGuardReentrantCall","inputs":[]},{"type":"error","name":"SafeERC20FailedOperation","inputs":[{"name":"token","type":"address","internalType":"address"}]}],"bytecode":{"object":"0x60803461022657601f61118938819003918201601f19168301916001600160401b0383118484101761022a5780849260c094604052833981010312610226576100478161023e565b906100546020820161023e565b90604081015160608201519360a06080840151930151933315610213575f8054336001600160a01b0319821681178355604051949290916001600160a01b0316907f8be0079c531659141344cd1fd0a4f28419497f9722a3daafe3b4186f6b6457e09080a3600180556001600160a01b03169182156101d157506001600160a01b031690811561018c578181146101475760018060a01b0319600b541617600b5560018060a01b0319600a541617600a556008558260055560045580610131575b5064e8d4a51000600955600655604051610f3690816102538239f35b600160ff1960025416176002556007555f610115565b60405162461bcd60e51b815260206004820152601860248201527f546f6b656e73206d75737420626520646966666572656e7400000000000000006044820152606490fd5b60405162461bcd60e51b815260206004820152601460248201527f496e76616c69642072657761726420746f6b656e0000000000000000000000006044820152606490fd5b62461bcd60e51b815260206004820152601460248201527f496e76616c6964207374616b656420746f6b656e0000000000000000000000006044820152606490fd5b631e4fbdf760e01b5f525f60045260245ffd5b5f80fd5b634e487b7160e01b5f52604160045260245ffd5b51906001600160a01b03821682036102265756fe60806040526004361015610011575f80fd5b5f3560e01c806301f8a97614610ae15780631959a00214610aa05780631aed655314610a835780632e1a7d4d146109455780633f138d4b1461078457806348cd4cb11461076757806366fe9f8a1461074a578063715018a6146106f357806380dc0672146106ab5780638ae39cac1461068e5780638da5cb5b146106675780638dbb1e3a1461064e5780638f6629151461063157806392e8990e1461060f5780639513997f146104e4578063a0b40905146103e2578063a9f8d181146103c5578063b6b55f2514610237578063cc7a262e1461020f578063ccd34cd5146101f2578063f2fde38b1461016d578063f40f0f52146101425763f7c618c114610116575f80fd5b3461013e575f36600319011261013e57600a546040516001600160a01b039091168152602090f35b5f80fd5b3461013e57602036600319011261013e576020610165610160610b3a565b610c69565b604051908152f35b3461013e57602036600319011261013e57610186610b3a565b61018e610d70565b6001600160a01b031680156101df575f80546001600160a01b03198116831782556001600160a01b0316907f8be0079c531659141344cd1fd0a4f28419497f9722a3daafe3b4186f6b6457e09080a3005b631e4fbdf760e01b5f525f60045260245ffd5b3461013e575f36600319011261013e576020600954604051908152f35b3461013e575f36600319011261013e57600b546040516001600160a01b039091168152602090f35b3461013e57602036600319011261013e57600435610253610d96565b335f52600c60205260405f2060ff6002541661036c575b610272610db6565b80548061032a575b50816102d2575b600161029d610294835460035490610ba5565b60095490610bcc565b9101556040519081527fe1fffcc4923d04b559f4d29a8bfc6cda04eb5b0d3c460751c2402c5c5cc9109c60203392a260018055005b6102dd828254610c5c565b8155600b546040516323b872dd60e01b602082015233602482015230604482015260648082018590528152610325916001600160a01b0316610320608483610bf7565b610ea8565b610281565b61033d6102946103489260035490610ba5565b600183015490610bea565b801561027a57600a54610366919033906001600160a01b0316610e6c565b8261027a565b610377815483610c5c565b600754101561026a5760405162461bcd60e51b815260206004820152601760248201527f5573657220616d6f756e742061626f7665206c696d69740000000000000000006044820152606490fd5b3461013e575f36600319011261013e576020600654604051908152f35b3461013e57604036600319011261013e57600435801515810361013e576024359061040b610d70565b6002549060ff8216156104b157156104a0575060075481111561045b576007555b7f241f67ee5f41b7a5cabf911367329be7215900f602ebfc47f89dce2a6bcd847c6020600754604051908152a1005b60405162461bcd60e51b815260206004820152601860248201527f4e6577206c696d6974206d7573742062652068696768657200000000000000006044820152606490fd5b60ff1916600255505f60075561042c565b60405162461bcd60e51b815260206004820152600b60248201526a135d5cdd081899481cd95d60aa1b6044820152606490fd5b3461013e576104f236610b50565b6104fa610d70565b6105076005544310610b66565b808210156105b3578143101561055557816040917f7cd0ab87d19036f3dfadadb232c78aa4879dda3f0c994a9d637532410ee2ce0693600555806004558160065582519182526020820152a1005b60405162461bcd60e51b815260206004820152603060248201527f4e6577207374617274426c6f636b206d7573742062652068696768657220746860448201526f616e2063757272656e7420626c6f636b60801b6064820152608490fd5b60405162461bcd60e51b815260206004820152602e60248201527f4e6577207374617274426c6f636b206d757374206265206c6f7765722074686160448201526d6e206e657720656e64426c6f636b60901b6064820152608490fd5b3461013e575f36600319011261013e57602060ff600254166040519015158152f35b3461013e575f36600319011261013e576020600354604051908152f35b3461013e57602061016561066136610b50565b90610c2d565b3461013e575f36600319011261013e575f546040516001600160a01b039091168152602090f35b3461013e575f36600319011261013e576020600854604051908152f35b3461013e575f36600319011261013e576106c3610d70565b436004557ffed9fcb0ca3d1e761a4b929792bb24082fba92dca81252646ad306d3068065666020604051438152a1005b3461013e575f36600319011261013e5761070b610d70565b5f80546001600160a01b0319811682556001600160a01b03167f8be0079c531659141344cd1fd0a4f28419497f9722a3daafe3b4186f6b6457e08280a3005b3461013e575f36600319011261013e576020600754604051908152f35b3461013e575f36600319011261013e576020600554604051908152f35b3461013e57604036600319011261013e5761079d610b3a565b6024356107a8610d70565b600b546001600160a01b038381169116811461090757600a546001600160a01b031681146108c95760405163a9059cbb60e01b81523360048201526024810183905290602090829060449082905f905af19081156108be575f91610883575b501561084c57604080516001600160a01b0393909316835260208301919091527f74545154aac348a3eac92596bd1971957ca94795f4e954ec5f613b55fab7812991a1005b60405162461bcd60e51b815260206004820152600f60248201526e151c985b9cd9995c8819985a5b1959608a1b6044820152606490fd5b90506020813d6020116108b6575b8161089e60209383610bf7565b8101031261013e5751801515810361013e5783610807565b3d9150610891565b6040513d5f823e3d90fd5b60405162461bcd60e51b815260206004820152601660248201527521b0b73737ba103132903932bbb0b932103a37b5b2b760511b6044820152606490fd5b60405162461bcd60e51b815260206004820152601660248201527521b0b73737ba1031329039ba30b5b2b2103a37b5b2b760511b6044820152606490fd5b3461013e57602036600319011261013e57600435610961610d96565b335f52600c60205260405f2081815410610a3e5761097d610db6565b6109c161029482549261099561029460035486610ba5565b936109a66001830195865490610bea565b908680610a13575b5050806109f5575b505460035490610ba5565b90556040519081527f884edad9ce6fa2440d8a54cc123490eb96d2768479d49ff9c7366125a942436460203392a260018055005b600a54610a0d919033906001600160a01b0316610e6c565b856109b6565b610a1c91610bea565b8255600b54610a3790879033906001600160a01b0316610e6c565b86866109ae565b60405162461bcd60e51b815260206004820152601b60248201527f416d6f756e7420746f20776974686472617720746f6f206869676800000000006044820152606490fd5b3461013e575f36600319011261013e576020600454604051908152f35b3461013e57602036600319011261013e576001600160a01b03610ac1610b3a565b165f52600c6020526040805f206001815491015482519182526020820152f35b3461013e57602036600319011261013e577f0c4d677eef92893ac7ec52faf8140fc6c851ab4736302b4f3a89dfb20696a0df6020600435610b20610d70565b610b2d6005544310610b66565b80600855604051908152a1005b600435906001600160a01b038216820361013e57565b604090600319011261013e576004359060243590565b15610b6d57565b60405162461bcd60e51b815260206004820152601060248201526f141bdbdb081a185cc81cdd185c9d195960821b6044820152606490fd5b81810292918115918404141715610bb857565b634e487b7160e01b5f52601160045260245ffd5b8115610bd6570490565b634e487b7160e01b5f52601260045260245ffd5b91908203918211610bb857565b90601f8019910116810190811067ffffffffffffffff821117610c1957604052565b634e487b7160e01b5f52604160045260245ffd5b60045491828111610c4557610c429250610bea565b90565b50818110610c535750505f90565b610c4291610bea565b91908201809211610bb857565b60018060a01b03165f52600c602052602460405f20602060018060a01b03600b5416604051938480926370a0823160e01b82523060048301525afa9182156108be575f92610d3c575b5060065480431180610d33575b15610d1a57610d11610c4293610cff610d0a610cea610ce16001964390610c2d565b60085490610ba5565b92610d0460035491610cff6009548097610ba5565b610bcc565b90610c5c565b8554610ba5565b91015490610bea565b50610c4291506001610d11610294835460035490610ba5565b50821515610cbf565b9091506020813d602011610d68575b81610d5860209383610bf7565b8101031261013e5751905f610cb2565b3d9150610d4b565b5f546001600160a01b03163303610d8357565b63118cdaa760e01b5f523360045260245ffd5b600260015414610da7576002600155565b633ee5aeb560e01b5f5260045ffd5b600654431115610e6a57600b546040516370a0823160e01b815230600482015290602090829060249082906001600160a01b03165afa9081156108be575f91610e38575b508015610e3157610e2890610d04610e17610ce143600654610c2d565b91610cff6003549360095490610ba5565b60035543600655565b5043600655565b90506020813d602011610e62575b81610e5360209383610bf7565b8101031261013e57515f610dfa565b3d9150610e46565b565b60405163a9059cbb60e01b60208201526001600160a01b03929092166024830152604480830193909352918152610e6a91610320606483610bf7565b905f602091828151910182855af1156108be575f513d610ef757506001600160a01b0381163b155b610ed75750565b635274afe760e01b5f9081526001600160a01b0391909116600452602490fd5b60011415610ed056fea26469706673582212208eed0065ba38c6f8bd5899b9aad097d339c268df07c8518da6958fa08aa1a03b64736f6c634300081e0033","linkReferences":{}},"methodIdentifiers":{"PRECISION_FACTOR()":"ccd34cd5","accTokenPerShare()":"8f662915","bonusEndBlock()":"1aed6553","deposit(uint256)":"b6b55f25","getMultiplier(uint256,uint256)":"8dbb1e3a","hasUserLimit()":"92e8990e","lastRewardBlock()":"a9f8d181","owner()":"8da5cb5b","pendingReward(address)":"f40f0f52","poolLimitPerUser()":"66fe9f8a","recoverWrongTokens(address,uint256)":"3f138d4b","renounceOwnership()":"715018a6","rewardPerBlock()":"8ae39cac","rewardToken()":"f7c618c1","stakedToken()":"cc7a262e","startBlock()":"48cd4cb1","stopReward()":"80dc0672","transferOwnership(address)":"f2fde38b","updatePoolLimitPerUser(bool,uint256)":"a0b40905","updateRewardPerBlock(uint256)":"01f8a976","updateStartAndEndBlocks(uint256,uint256)":"9513997f","userInfo(address)":"1959a002","withdraw(uint256)":"2e1a7d4d"},"id":33}